{
  "_format": "hh-sol-artifact-1",
  "contractName": "Market",
  "sourceName": "contracts/Market.sol",
  "abi": [
    {
      "anonymous": false,
      "inputs": [
        {
          "indexed": false,
          "internalType": "address",
          "name": "lender",
          "type": "address"
        },
        {
          "indexed": false,
          "internalType": "address",
          "name": "nftAddress",
          "type": "address"
        },
        {
          "indexed": false,
          "internalType": "uint256",
          "name": "nftId",
          "type": "uint256"
        }
      ],
      "name": "CancelLendOrder",
      "type": "event"
    },
    {
      "anonymous": false,
      "inputs": [
        {
          "indexed": false,
          "internalType": "address",
          "name": "lender",
          "type": "address"
        },
        {
          "indexed": false,
          "internalType": "address",
          "name": "nftAddress",
          "type": "address"
        },
        {
          "indexed": false,
          "internalType": "uint256",
          "name": "nftId",
          "type": "uint256"
        },
        {
          "indexed": false,
          "internalType": "uint64",
          "name": "minDuration",
          "type": "uint64"
        },
        {
          "indexed": false,
          "internalType": "uint64",
          "name": "maxDuration",
          "type": "uint64"
        },
        {
          "indexed": false,
          "internalType": "uint256",
          "name": "shareRatio",
          "type": "uint256"
        },
        {
          "indexed": false,
          "internalType": "address",
          "name": "paymentToken",
          "type": "address"
        }
      ],
      "name": "CreateLendOrder",
      "type": "event"
    },
    {
      "anonymous": false,
      "inputs": [
        {
          "indexed": false,
          "internalType": "address",
          "name": "renter",
          "type": "address"
        },
        {
          "indexed": false,
          "internalType": "address",
          "name": "lender",
          "type": "address"
        },
        {
          "indexed": false,
          "internalType": "address",
          "name": "nftAddress",
          "type": "address"
        },
        {
          "indexed": false,
          "internalType": "uint256",
          "name": "nftId",
          "type": "uint256"
        },
        {
          "indexed": false,
          "internalType": "uint256",
          "name": "startTime",
          "type": "uint256"
        },
        {
          "indexed": false,
          "internalType": "uint256",
          "name": "endTime",
          "type": "uint256"
        },
        {
          "indexed": false,
          "internalType": "uint8",
          "name": "shareRatio",
          "type": "uint8"
        },
        {
          "indexed": false,
          "internalType": "address",
          "name": "paymentToken",
          "type": "address"
        }
      ],
      "name": "FulfillOrder",
      "type": "event"
    },
    {
      "inputs": [
        {
          "internalType": "address",
          "name": "nftAddress",
          "type": "address"
        },
        {
          "internalType": "uint256",
          "name": "nftId",
          "type": "uint256"
        }
      ],
      "name": "cancelLendOrder",
      "outputs": [],
      "stateMutability": "nonpayable",
      "type": "function"
    },
    {
      "inputs": [
        {
          "internalType": "address",
          "name": "nftAddress",
          "type": "address"
        },
        {
          "internalType": "uint256",
          "name": "nftId",
          "type": "uint256"
        },
        {
          "internalType": "uint64",
          "name": "lendValidUntil",
          "type": "uint64"
        },
        {
          "internalType": "uint64",
          "name": "minDuration",
          "type": "uint64"
        },
        {
          "internalType": "uint64",
          "name": "maxDuration",
          "type": "uint64"
        },
        {
          "internalType": "uint8",
          "name": "shareRatio",
          "type": "uint8"
        },
        {
          "internalType": "address",
          "name": "paymentToken",
          "type": "address"
        }
      ],
      "name": "createLendOrder",
      "outputs": [],
      "stateMutability": "nonpayable",
      "type": "function"
    },
    {
      "inputs": [
        {
          "internalType": "address",
          "name": "nftAddress",
          "type": "address"
        },
        {
          "internalType": "uint256",
          "name": "nftId",
          "type": "uint256"
        },
        {
          "internalType": "uint64",
          "name": "duration",
          "type": "uint64"
        },
        {
          "internalType": "address",
          "name": "user",
          "type": "address"
        }
      ],
      "name": "fulfillOrder",
      "outputs": [],
      "stateMutability": "nonpayable",
      "type": "function"
    },
    {
      "inputs": [
        {
          "internalType": "address",
          "name": "nftAddress",
          "type": "address"
        },
        {
          "internalType": "uint256",
          "name": "nftId",
          "type": "uint256"
        }
      ],
      "name": "getLendOrder",
      "outputs": [
        {
          "components": [
            {
              "internalType": "address",
              "name": "lender",
              "type": "address"
            },
            {
              "internalType": "address",
              "name": "nftAddress",
              "type": "address"
            },
            {
              "internalType": "uint256",
              "name": "nftId",
              "type": "uint256"
            },
            {
              "internalType": "uint256",
              "name": "createTime",
              "type": "uint256"
            },
            {
              "internalType": "uint64",
              "name": "minDuration",
              "type": "uint64"
            },
            {
              "internalType": "uint64",
              "name": "maxDuration",
              "type": "uint64"
            },
            {
              "internalType": "uint8",
              "name": "shareRatio",
              "type": "uint8"
            },
            {
              "internalType": "address",
              "name": "paymentToken",
              "type": "address"
            },
            {
              "internalType": "address",
              "name": "lendContract",
              "type": "address"
            }
          ],
          "internalType": "struct IMarket.Lending",
          "name": "",
          "type": "tuple"
        }
      ],
      "stateMutability": "view",
      "type": "function"
    },
    {
      "inputs": [
        {
          "internalType": "address",
          "name": "operator",
          "type": "address"
        },
        {
          "internalType": "address",
          "name": "from",
          "type": "address"
        },
        {
          "internalType": "uint256",
          "name": "tokenId",
          "type": "uint256"
        },
        {
          "internalType": "bytes",
          "name": "data",
          "type": "bytes"
        }
      ],
      "name": "onERC721Received",
      "outputs": [
        {
          "internalType": "bytes4",
          "name": "",
          "type": "bytes4"
        }
      ],
      "stateMutability": "pure",
      "type": "function"
    }
  ],
  "bytecode": "0x608060405234801561001057600080fd5b50613a95806100206000396000f3fe60806040523480156200001157600080fd5b50600436106200005e5760003560e01c8063150b7a021462000063578063430e70501462000099578063434aee6314620000cf578063665fd53f14620000ef578063dede08a7146200010f575b600080fd5b6200008160048036038101906200007b91906200122e565b6200012f565b60405162000090919062001301565b60405180910390f35b620000b76004803603810190620000b191906200131e565b6200015d565b604051620000c6919062001493565b60405180910390f35b620000ed6004803603810190620000e791906200131e565b620003b8565b005b6200010d600480360381019062000107919062001513565b620003bc565b005b6200012d6004803603810190620001279190620015c6565b620009db565b005b60007f150b7a023d4804d13e8c85fb27262cb750cf6ba9f9dd3bb30d90f482ceeb4b1f905095945050505050565b620001676200104d565b600160008473ffffffffffffffffffffffffffffffffffffffff1673ffffffffffffffffffffffffffffffffffffffff1681526020019081526020016000206000838152602001908152602001600020604051806101200160405290816000820160009054906101000a900473ffffffffffffffffffffffffffffffffffffffff1673ffffffffffffffffffffffffffffffffffffffff1673ffffffffffffffffffffffffffffffffffffffff1681526020016001820160009054906101000a900473ffffffffffffffffffffffffffffffffffffffff1673ffffffffffffffffffffffffffffffffffffffff1673ffffffffffffffffffffffffffffffffffffffff16815260200160028201548152602001600382015481526020016004820160009054906101000a900467ffffffffffffffff1667ffffffffffffffff1667ffffffffffffffff1681526020016004820160089054906101000a900467ffffffffffffffff1667ffffffffffffffff1667ffffffffffffffff1681526020016004820160109054906101000a900460ff1660ff1660ff1681526020016005820160009054906101000a900473ffffffffffffffffffffffffffffffffffffffff1673ffffffffffffffffffffffffffffffffffffffff1673ffffffffffffffffffffffffffffffffffffffff1681526020016006820160009054906101000a900473ffffffffffffffffffffffffffffffffffffffff1673ffffffffffffffffffffffffffffffffffffffff1673ffffffffffffffffffffffffffffffffffffffff1681525050905092915050565b5050565b600073ffffffffffffffffffffffffffffffffffffffff166000808973ffffffffffffffffffffffffffffffffffffffff1673ffffffffffffffffffffffffffffffffffffffff168152602001908152602001600020600088815260200190815260200160002060009054906101000a900473ffffffffffffffffffffffffffffffffffffffff1673ffffffffffffffffffffffffffffffffffffffff16146200049d576040517f08c379a0000000000000000000000000000000000000000000000000000000008152600401620004949062001699565b60405180910390fd5b620004aa30888862000e22565b620004ec576040517f08c379a0000000000000000000000000000000000000000000000000000000008152600401620004e3906200170b565b60405180910390fd5b60008773ffffffffffffffffffffffffffffffffffffffff16636352211e886040518263ffffffff1660e01b81526004016200052991906200173e565b60206040518083038186803b1580156200054257600080fd5b505afa15801562000557573d6000803e3d6000fd5b505050506040513d601f19601f820116820180604052508101906200057d919062001772565b90508773ffffffffffffffffffffffffffffffffffffffff166342842e0e82308a6040518463ffffffff1660e01b8152600401620005be93929190620017b5565b600060405180830381600087803b158015620005d957600080fd5b505af1158015620005ee573d6000803e3d6000fd5b50505050600083838887604051620006069062001108565b62000615949392919062001814565b604051809103906000f08015801562000632573d6000803e3d6000fd5b5090508873ffffffffffffffffffffffffffffffffffffffff1663095ea7b3828a6040518363ffffffff1660e01b81526004016200067292919062001861565b600060405180830381600087803b1580156200068d57600080fd5b505af1158015620006a2573d6000803e3d6000fd5b505050508073ffffffffffffffffffffffffffffffffffffffff1663adc9772e8a8a6040518363ffffffff1660e01b8152600401620006e392919062001861565b600060405180830381600087803b158015620006fe57600080fd5b505af115801562000713573d6000803e3d6000fd5b505050506000600160008b73ffffffffffffffffffffffffffffffffffffffff1673ffffffffffffffffffffffffffffffffffffffff16815260200190815260200160002060008a81526020019081526020016000209050338160000160006101000a81548173ffffffffffffffffffffffffffffffffffffffff021916908373ffffffffffffffffffffffffffffffffffffffff160217905550898160010160006101000a81548173ffffffffffffffffffffffffffffffffffffffff021916908373ffffffffffffffffffffffffffffffffffffffff160217905550888160020181905550428160030181905550868160040160006101000a81548167ffffffffffffffff021916908367ffffffffffffffff160217905550858160040160086101000a81548167ffffffffffffffff021916908367ffffffffffffffff160217905550848160040160106101000a81548160ff021916908360ff160217905550838160050160006101000a81548173ffffffffffffffffffffffffffffffffffffffff021916908373ffffffffffffffffffffffffffffffffffffffff160217905550818160060160006101000a81548173ffffffffffffffffffffffffffffffffffffffff021916908373ffffffffffffffffffffffffffffffffffffffff160217905550816000808c73ffffffffffffffffffffffffffffffffffffffff1673ffffffffffffffffffffffffffffffffffffffff16815260200190815260200160002060008b815260200190815260200160002060006101000a81548173ffffffffffffffffffffffffffffffffffffffff021916908373ffffffffffffffffffffffffffffffffffffffff1602179055507fdc09951a13ba1c520660a47f15c61e2841121e27a7e611ea4f6b2ad971988d6c338b8b8a8a8a8a604051620009c79796959493929190620018d1565b60405180910390a150505050505050505050565b6000600160008673ffffffffffffffffffffffffffffffffffffffff1673ffffffffffffffffffffffffffffffffffffffff16815260200190815260200160002060008581526020019081526020016000209050600073ffffffffffffffffffffffffffffffffffffffff168160000160009054906101000a900473ffffffffffffffffffffffffffffffffffffffff1673ffffffffffffffffffffffffffffffffffffffff16141562000ac6576040517f08c379a000000000000000000000000000000000000000000000000000000000815260040162000abd906200199e565b60405180910390fd5b6000600260008773ffffffffffffffffffffffffffffffffffffffff1673ffffffffffffffffffffffffffffffffffffffff168152602001908152602001600020600086815260200190815260200160002090508160060160009054906101000a900473ffffffffffffffffffffffffffffffffffffffff1673ffffffffffffffffffffffffffffffffffffffff1663de5d588485856040518363ffffffff1660e01b815260040162000b7b929190620019c0565b600060405180830381600087803b15801562000b9657600080fd5b505af115801562000bab573d6000803e3d6000fd5b50505050338160000160006101000a81548173ffffffffffffffffffffffffffffffffffffffff021916908373ffffffffffffffffffffffffffffffffffffffff1602179055508160000160009054906101000a900473ffffffffffffffffffffffffffffffffffffffff168160010160006101000a81548173ffffffffffffffffffffffffffffffffffffffff021916908373ffffffffffffffffffffffffffffffffffffffff160217905550858160020160006101000a81548173ffffffffffffffffffffffffffffffffffffffff021916908373ffffffffffffffffffffffffffffffffffffffff1602179055508481600301819055504281600401819055508367ffffffffffffffff164262000cc6919062001a1c565b81600501819055508160040160109054906101000a900460ff168160060160006101000a81548160ff021916908360ff1602179055508160050160009054906101000a900473ffffffffffffffffffffffffffffffffffffffff168160060160016101000a81548173ffffffffffffffffffffffffffffffffffffffff021916908373ffffffffffffffffffffffffffffffffffffffff1602179055507f0a7a78a7f25fff3196cfad1a7c731ff42f92cc874fb6bb47e55d4197b07d57a9338360000160009054906101000a900473ffffffffffffffffffffffffffffffffffffffff16888842428a67ffffffffffffffff1662000dc5919062001a1c565b8860040160109054906101000a900460ff168960050160009054906101000a900473ffffffffffffffffffffffffffffffffffffffff1660405162000e1298979695949392919062001a79565b60405180910390a1505050505050565b6000808373ffffffffffffffffffffffffffffffffffffffff16636352211e846040518263ffffffff1660e01b815260040162000e6091906200173e565b60206040518083038186803b15801562000e7957600080fd5b505afa15801562000e8e573d6000803e3d6000fd5b505050506040513d601f19601f8201168201806040525081019062000eb4919062001772565b90508073ffffffffffffffffffffffffffffffffffffffff168573ffffffffffffffffffffffffffffffffffffffff16148062000faa57508473ffffffffffffffffffffffffffffffffffffffff168473ffffffffffffffffffffffffffffffffffffffff1663081812fc856040518263ffffffff1660e01b815260040162000f3e91906200173e565b60206040518083038186803b15801562000f5757600080fd5b505afa15801562000f6c573d6000803e3d6000fd5b505050506040513d601f19601f8201168201806040525081019062000f92919062001772565b73ffffffffffffffffffffffffffffffffffffffff16145b806200104357508373ffffffffffffffffffffffffffffffffffffffff1663e985e9c582876040518363ffffffff1660e01b815260040162000fee92919062001b07565b60206040518083038186803b1580156200100757600080fd5b505afa1580156200101c573d6000803e3d6000fd5b505050506040513d601f19601f8201168201806040525081019062001042919062001b71565b5b9150509392505050565b604051806101200160405280600073ffffffffffffffffffffffffffffffffffffffff168152602001600073ffffffffffffffffffffffffffffffffffffffff1681526020016000815260200160008152602001600067ffffffffffffffff168152602001600067ffffffffffffffff168152602001600060ff168152602001600073ffffffffffffffffffffffffffffffffffffffff168152602001600073ffffffffffffffffffffffffffffffffffffffff1681525090565b611ebc8062001ba483390190565b600080fd5b600080fd5b600073ffffffffffffffffffffffffffffffffffffffff82169050919050565b60006200114d8262001120565b9050919050565b6200115f8162001140565b81146200116b57600080fd5b50565b6000813590506200117f8162001154565b92915050565b6000819050919050565b6200119a8162001185565b8114620011a657600080fd5b50565b600081359050620011ba816200118f565b92915050565b600080fd5b600080fd5b600080fd5b60008083601f840112620011e857620011e7620011c0565b5b8235905067ffffffffffffffff811115620012085762001207620011c5565b5b602083019150836001820283011115620012275762001226620011ca565b5b9250929050565b6000806000806000608086880312156200124d576200124c62001116565b5b60006200125d888289016200116e565b955050602062001270888289016200116e565b94505060406200128388828901620011a9565b935050606086013567ffffffffffffffff811115620012a757620012a66200111b565b5b620012b588828901620011cf565b92509250509295509295909350565b60007fffffffff0000000000000000000000000000000000000000000000000000000082169050919050565b620012fb81620012c4565b82525050565b6000602082019050620013186000830184620012f0565b92915050565b6000806040838503121562001338576200133762001116565b5b600062001348858286016200116e565b92505060206200135b85828601620011a9565b9150509250929050565b620013708162001140565b82525050565b620013818162001185565b82525050565b600067ffffffffffffffff82169050919050565b620013a68162001387565b82525050565b600060ff82169050919050565b620013c481620013ac565b82525050565b61012082016000820151620013e3600085018262001365565b506020820151620013f8602085018262001365565b5060408201516200140d604085018262001376565b50606082015162001422606085018262001376565b5060808201516200143760808501826200139b565b5060a08201516200144c60a08501826200139b565b5060c08201516200146160c0850182620013b9565b5060e08201516200147660e085018262001365565b506101008201516200148d61010085018262001365565b50505050565b600061012082019050620014ab6000830184620013ca565b92915050565b620014bc8162001387565b8114620014c857600080fd5b50565b600081359050620014dc81620014b1565b92915050565b620014ed81620013ac565b8114620014f957600080fd5b50565b6000813590506200150d81620014e2565b92915050565b600080600080600080600060e0888a03121562001535576200153462001116565b5b6000620015458a828b016200116e565b9750506020620015588a828b01620011a9565b96505060406200156b8a828b01620014cb565b95505060606200157e8a828b01620014cb565b9450506080620015918a828b01620014cb565b93505060a0620015a48a828b01620014fc565b92505060c0620015b78a828b016200116e565b91505092959891949750929550565b60008060008060808587031215620015e357620015e262001116565b5b6000620015f3878288016200116e565b94505060206200160687828801620011a9565b93505060406200161987828801620014cb565b92505060606200162c878288016200116e565b91505092959194509250565b600082825260208201905092915050565b7f616c7265616479206c656e640000000000000000000000000000000000000000600082015250565b600062001681600c8362001638565b91506200168e8262001649565b602082019050919050565b60006020820190508181036000830152620016b48162001672565b9050919050565b7f6f6e6c7920617070726f766564206f72206f776e657200000000000000000000600082015250565b6000620016f360168362001638565b91506200170082620016bb565b602082019050919050565b600060208201905081810360008301526200172681620016e4565b9050919050565b620017388162001185565b82525050565b60006020820190506200175560008301846200172d565b92915050565b6000815190506200176c8162001154565b92915050565b6000602082840312156200178b576200178a62001116565b5b60006200179b848285016200175b565b91505092915050565b620017af8162001140565b82525050565b6000606082019050620017cc6000830186620017a4565b620017db6020830185620017a4565b620017ea60408301846200172d565b949350505050565b620017fd81620013ac565b82525050565b6200180e8162001387565b82525050565b60006080820190506200182b6000830187620017f2565b6200183a6020830186620017a4565b62001849604083018562001803565b62001858606083018462001803565b95945050505050565b6000604082019050620018786000830185620017a4565b6200188760208301846200172d565b9392505050565b6000819050919050565b6000620018b9620018b3620018ad84620013ac565b6200188e565b62001185565b9050919050565b620018cb8162001898565b82525050565b600060e082019050620018e8600083018a620017a4565b620018f76020830189620017a4565b6200190660408301886200172d565b62001915606083018762001803565b62001924608083018662001803565b6200193360a0830185620018c0565b6200194260c0830184620017a4565b98975050505050505050565b7f6e6f7420796574206c656e640000000000000000000000000000000000000000600082015250565b600062001986600c8362001638565b915062001993826200194e565b602082019050919050565b60006020820190508181036000830152620019b98162001977565b9050919050565b6000604082019050620019d7600083018562001803565b620019e66020830184620017a4565b9392505050565b7f4e487b7100000000000000000000000000000000000000000000000000000000600052601160045260246000fd5b600062001a298262001185565b915062001a368362001185565b9250827fffffffffffffffffffffffffffffffffffffffffffffffffffffffffffffffff0382111562001a6e5762001a6d620019ed565b5b828201905092915050565b60006101008201905062001a91600083018b620017a4565b62001aa0602083018a620017a4565b62001aaf6040830189620017a4565b62001abe60608301886200172d565b62001acd60808301876200172d565b62001adc60a08301866200172d565b62001aeb60c0830185620017f2565b62001afa60e0830184620017a4565b9998505050505050505050565b600060408201905062001b1e6000830185620017a4565b62001b2d6020830184620017a4565b9392505050565b60008115159050919050565b62001b4b8162001b34565b811462001b5757600080fd5b50565b60008151905062001b6b8162001b40565b92915050565b60006020828403121562001b8a5762001b8962001116565b5b600062001b9a8482850162001b5a565b9150509291505056fe60806040523480156200001157600080fd5b5060405162001ebc38038062001ebc8339818101604052810190620000379190620002cf565b620000576200004b6200011660201b60201c565b6200011e60201b60201c565b83600560086101000a81548160ff021916908360ff16021790555082600560096101000a81548173ffffffffffffffffffffffffffffffffffffffff021916908373ffffffffffffffffffffffffffffffffffffffff16021790555081600360006101000a81548167ffffffffffffffff021916908367ffffffffffffffff16021790555080600560006101000a81548167ffffffffffffffff021916908367ffffffffffffffff160217905550426004819055505050505062000341565b600033905090565b60008060009054906101000a900473ffffffffffffffffffffffffffffffffffffffff169050816000806101000a81548173ffffffffffffffffffffffffffffffffffffffff021916908373ffffffffffffffffffffffffffffffffffffffff1602179055508173ffffffffffffffffffffffffffffffffffffffff168173ffffffffffffffffffffffffffffffffffffffff167f8be0079c531659141344cd1fd0a4f28419497f9722a3daafe3b4186f6b6457e060405160405180910390a35050565b600080fd5b600060ff82169050919050565b620001ff81620001e7565b81146200020b57600080fd5b50565b6000815190506200021f81620001f4565b92915050565b600073ffffffffffffffffffffffffffffffffffffffff82169050919050565b6000620002528262000225565b9050919050565b620002648162000245565b81146200027057600080fd5b50565b600081519050620002848162000259565b92915050565b600067ffffffffffffffff82169050919050565b620002a9816200028a565b8114620002b557600080fd5b50565b600081519050620002c9816200029e565b92915050565b60008060008060808587031215620002ec57620002eb620001e2565b5b6000620002fc878288016200020e565b94505060206200030f8782880162000273565b93505060406200032287828801620002b8565b92505060606200033587828801620002b8565b91505092959194509250565b611b6b80620003516000396000f3fe608060405234801561001057600080fd5b50600436106101215760003560e01c8063832880e7116100ad578063be040fb011610071578063be040fb0146102c2578063d506355c146102cc578063de5d5884146102ec578063ec3e213314610308578063f2fde38b1461032657610121565b8063832880e7146102305780638da5cb5b1461024e578063adc9772e1461026c578063b12e543114610288578063bb5d40eb146102a457610121565b80635d8d1585116100f45780635d8d1585146101ae57806367cf11ad146101cc5780636def4499146101ea578063715018a6146102085780637ca5685f1461021257610121565b8063150b7a0214610126578063244af19b146101565780632e163159146101745780633013ce2914610190575b600080fd5b610140600480360381019061013b919061114b565b610342565b60405161014d919061120e565b60405180910390f35b61015e610370565b60405161016b9190611244565b60405180910390f35b61018e60048036038101906101899190611298565b6103cd565b005b610198610478565b6040516101a591906112d4565b60405180910390f35b6101b661049e565b6040516101c3919061134f565b60405180910390f35b6101d4610522565b6040516101e19190611379565b60405180910390f35b6101f2610535565b6040516101ff9190611244565b60405180910390f35b6102106105e0565b005b61021a6105f4565b60405161022791906113c3565b60405180910390f35b61023861066e565b60405161024591906112d4565b60405180910390f35b61025661069b565b60405161026391906112d4565b60405180910390f35b610286600480360381019061028191906113de565b6106c4565b005b6102a2600480360381019061029d919061145e565b610901565b005b6102ac6109ba565b6040516102b99190611244565b60405180910390f35b6102ca6109e4565b005b6102d4610bff565b6040516102e39392919061148b565b60405180910390f35b610306600480360381019061030191906114c2565b610c0e565b005b610310610d8e565b60405161031d9190611511565b60405180910390f35b610340600480360381019061033b919061152c565b610da8565b005b60007f150b7a023d4804d13e8c85fb27262cb750cf6ba9f9dd3bb30d90f482ceeb4b1f905095945050505050565b60006001151561037e610e2c565b1515146103c0576040517f08c379a00000000000000000000000000000000000000000000000000000000081526004016103b7906115b6565b60405180910390fd5b6103c8610e88565b905090565b6103d5610e97565b600115156103e1610e88565b151514610423576040517f08c379a000000000000000000000000000000000000000000000000000000000815260040161041a90611622565b60405180910390fd5b80600560086101000a81548160ff021916908360ff1602179055507f7c4c46712ef42cf7f97120c014ae2d133998599f8fbf8aae88c2e225fbde0a4a8160405161046d9190611379565b60405180910390a150565b600560099054906101000a900473ffffffffffffffffffffffffffffffffffffffff1681565b6104a6610fe1565b600660405180606001604052908160008201548152602001600182015481526020016002820160009054906101000a900473ffffffffffffffffffffffffffffffffffffffff1673ffffffffffffffffffffffffffffffffffffffff1673ffffffffffffffffffffffffffffffffffffffff1681525050905090565b600560089054906101000a900460ff1681565b600060011515610543610e2c565b151514610585576040517f08c379a000000000000000000000000000000000000000000000000000000000815260040161057c906115b6565b60405180910390fd5b600115156105916109ba565b1515146105d3576040517f08c379a00000000000000000000000000000000000000000000000000000000081526004016105ca9061168e565b60405180910390fd5b6105db610e88565b905090565b6105e8610e97565b6105f26000610f15565b565b6105fc611018565b60096040518060400160405290816000820160009054906101000a900473ffffffffffffffffffffffffffffffffffffffff1673ffffffffffffffffffffffffffffffffffffffff1673ffffffffffffffffffffffffffffffffffffffff168152602001600182015481525050905090565b6000600660020160009054906101000a900473ffffffffffffffffffffffffffffffffffffffff16905090565b60008060009054906101000a900473ffffffffffffffffffffffffffffffffffffffff16905090565b6106cc610e97565b600015156106d8610e2c565b15151461071a576040517f08c379a0000000000000000000000000000000000000000000000000000000008152600401610711906116fa565b60405180910390fd5b8173ffffffffffffffffffffffffffffffffffffffff16636352211e826040518263ffffffff1660e01b81526004016107539190611729565b60206040518083038186803b15801561076b57600080fd5b505afa15801561077f573d6000803e3d6000fd5b505050506040513d601f19601f820116820180604052508101906107a39190611759565b600260006101000a81548173ffffffffffffffffffffffffffffffffffffffff021916908373ffffffffffffffffffffffffffffffffffffffff1602179055508173ffffffffffffffffffffffffffffffffffffffff166342842e0e600260009054906101000a900473ffffffffffffffffffffffffffffffffffffffff1630846040518463ffffffff1660e01b815260040161084293929190611786565b600060405180830381600087803b15801561085c57600080fd5b505af1158015610870573d6000803e3d6000fd5b5050505081600960000160006101000a81548173ffffffffffffffffffffffffffffffffffffffff021916908373ffffffffffffffffffffffffffffffffffffffff160217905550806009600101819055507f99039fcf0a98f484616c5196ee8b2ecfa971babf0b519848289ea4db381f85f73383836040516108f593929190611786565b60405180910390a15050565b610909610e97565b60011515610915610e88565b151514610957576040517f08c379a000000000000000000000000000000000000000000000000000000000815260040161094e90611809565b60405180910390fd5b80600560006101000a81548167ffffffffffffffff021916908367ffffffffffffffff1602179055507f5500e1aa94bd8c45be874db9c693b374eef21d0b6a609466cc3ff1574bd733e2816040516109af9190611511565b60405180910390a150565b6000600360009054906101000a900467ffffffffffffffff1667ffffffffffffffff164210905090565b6109ec610e97565b600115156109f8610370565b151514610a3a576040517f08c379a0000000000000000000000000000000000000000000000000000000008152600401610a3190611875565b60405180910390fd5b600960000160009054906101000a900473ffffffffffffffffffffffffffffffffffffffff1673ffffffffffffffffffffffffffffffffffffffff166342842e0e30600960000160009054906101000a900473ffffffffffffffffffffffffffffffffffffffff166009600101546040518463ffffffff1660e01b8152600401610ac693929190611786565b600060405180830381600087803b158015610ae057600080fd5b505af1158015610af4573d6000803e3d6000fd5b50505050600060096040518060400160405290816000820160009054906101000a900473ffffffffffffffffffffffffffffffffffffffff1673ffffffffffffffffffffffffffffffffffffffff1673ffffffffffffffffffffffffffffffffffffffff16815260200160018201548152505090506000600960000160006101000a81548173ffffffffffffffffffffffffffffffffffffffff021916908373ffffffffffffffffffffffffffffffffffffffff16021790555060006009600101819055507fd12200efa34901b99367694174c3b0d32c99585fdf37c7c26892136ddd0836d93382600001518360200151604051610bf493929190611786565b60405180910390a150565b610c07610fe1565b6000809192565b610c16610e97565b60011515610c22610535565b151514610c64576040517f08c379a0000000000000000000000000000000000000000000000000000000008152600401610c5b906118e1565b60405180910390fd5b600560009054906101000a900467ffffffffffffffff1667ffffffffffffffff168267ffffffffffffffff161115610cd1576040517f08c379a0000000000000000000000000000000000000000000000000000000008152600401610cc89061194d565b60405180910390fd5b80600660020160006101000a81548173ffffffffffffffffffffffffffffffffffffffff021916908373ffffffffffffffffffffffffffffffffffffffff16021790555042600660000181905550428267ffffffffffffffff16610d35919061199c565b6006600101819055507f870ff707643876dfe73d70e65373dc325461b6353db2e86fa329ad6d32f49fc160096001015460066000015460066001015484604051610d8294939291906119f2565b60405180910390a15050565b600560009054906101000a900467ffffffffffffffff1681565b610db0610e97565b600073ffffffffffffffffffffffffffffffffffffffff168173ffffffffffffffffffffffffffffffffffffffff161415610e20576040517f08c379a0000000000000000000000000000000000000000000000000000000008152600401610e1790611aa9565b60405180910390fd5b610e2981610f15565b50565b60008073ffffffffffffffffffffffffffffffffffffffff16600960000160009054906101000a900473ffffffffffffffffffffffffffffffffffffffff1673ffffffffffffffffffffffffffffffffffffffff161415905090565b60004260066001015410905090565b610e9f610fd9565b73ffffffffffffffffffffffffffffffffffffffff16610ebd61069b565b73ffffffffffffffffffffffffffffffffffffffff1614610f13576040517f08c379a0000000000000000000000000000000000000000000000000000000008152600401610f0a90611b15565b60405180910390fd5b565b60008060009054906101000a900473ffffffffffffffffffffffffffffffffffffffff169050816000806101000a81548173ffffffffffffffffffffffffffffffffffffffff021916908373ffffffffffffffffffffffffffffffffffffffff1602179055508173ffffffffffffffffffffffffffffffffffffffff168173ffffffffffffffffffffffffffffffffffffffff167f8be0079c531659141344cd1fd0a4f28419497f9722a3daafe3b4186f6b6457e060405160405180910390a35050565b600033905090565b60405180606001604052806000815260200160008152602001600073ffffffffffffffffffffffffffffffffffffffff1681525090565b6040518060400160405280600073ffffffffffffffffffffffffffffffffffffffff168152602001600081525090565b600080fd5b600080fd5b600073ffffffffffffffffffffffffffffffffffffffff82169050919050565b600061107d82611052565b9050919050565b61108d81611072565b811461109857600080fd5b50565b6000813590506110aa81611084565b92915050565b6000819050919050565b6110c3816110b0565b81146110ce57600080fd5b50565b6000813590506110e0816110ba565b92915050565b600080fd5b600080fd5b600080fd5b60008083601f84011261110b5761110a6110e6565b5b8235905067ffffffffffffffff811115611128576111276110eb565b5b602083019150836001820283011115611144576111436110f0565b5b9250929050565b60008060008060006080868803121561116757611166611048565b5b60006111758882890161109b565b95505060206111868882890161109b565b9450506040611197888289016110d1565b935050606086013567ffffffffffffffff8111156111b8576111b761104d565b5b6111c4888289016110f5565b92509250509295509295909350565b60007fffffffff0000000000000000000000000000000000000000000000000000000082169050919050565b611208816111d3565b82525050565b600060208201905061122360008301846111ff565b92915050565b60008115159050919050565b61123e81611229565b82525050565b60006020820190506112596000830184611235565b92915050565b600060ff82169050919050565b6112758161125f565b811461128057600080fd5b50565b6000813590506112928161126c565b92915050565b6000602082840312156112ae576112ad611048565b5b60006112bc84828501611283565b91505092915050565b6112ce81611072565b82525050565b60006020820190506112e960008301846112c5565b92915050565b6112f8816110b0565b82525050565b61130781611072565b82525050565b60608201600082015161132360008501826112ef565b50602082015161133660208501826112ef565b50604082015161134960408501826112fe565b50505050565b6000606082019050611364600083018461130d565b92915050565b6113738161125f565b82525050565b600060208201905061138e600083018461136a565b92915050565b6040820160008201516113aa60008501826112fe565b5060208201516113bd60208501826112ef565b50505050565b60006040820190506113d86000830184611394565b92915050565b600080604083850312156113f5576113f4611048565b5b60006114038582860161109b565b9250506020611414858286016110d1565b9150509250929050565b600067ffffffffffffffff82169050919050565b61143b8161141e565b811461144657600080fd5b50565b60008135905061145881611432565b92915050565b60006020828403121561147457611473611048565b5b600061148284828501611449565b91505092915050565b600060a0820190506114a0600083018661130d565b6114ad60608301856112c5565b6114ba608083018461136a565b949350505050565b600080604083850312156114d9576114d8611048565b5b60006114e785828601611449565b92505060206114f88582860161109b565b9150509250929050565b61150b8161141e565b82525050565b60006020820190506115266000830184611502565b92915050565b60006020828403121561154257611541611048565b5b60006115508482850161109b565b91505092915050565b600082825260208201905092915050565b7f6e6f7420796574207374616b696e670000000000000000000000000000000000600082015250565b60006115a0600f83611559565b91506115ab8261156a565b602082019050919050565b600060208201905081810360008301526115cf81611593565b9050919050565b7f63616e6e6f7420736574207368617265526174696f0000000000000000000000600082015250565b600061160c601583611559565b9150611617826115d6565b602082019050919050565b6000602082019050818103600083015261163b816115ff565b9050919050565b7f65787069726564206c656e640000000000000000000000000000000000000000600082015250565b6000611678600c83611559565b915061168382611642565b602082019050919050565b600060208201905081810360008301526116a78161166b565b9050919050565b7f616c7265616479207374616b696e670000000000000000000000000000000000600082015250565b60006116e4600f83611559565b91506116ef826116ae565b602082019050919050565b60006020820190508181036000830152611713816116d7565b9050919050565b611723816110b0565b82525050565b600060208201905061173e600083018461171a565b92915050565b60008151905061175381611084565b92915050565b60006020828403121561176f5761176e611048565b5b600061177d84828501611744565b91505092915050565b600060608201905061179b60008301866112c5565b6117a860208301856112c5565b6117b5604083018461171a565b949350505050565b7f63616e6e6f7420736574206d61784475726174696f6e00000000000000000000600082015250565b60006117f3601683611559565b91506117fe826117bd565b602082019050919050565b60006020820190508181036000830152611822816117e6565b9050919050565b7f63616e6e6f742072656465656d00000000000000000000000000000000000000600082015250565b600061185f600d83611559565b915061186a82611829565b602082019050919050565b6000602082019050818103600083015261188e81611852565b9050919050565b7f63616e6e6f742072656e74000000000000000000000000000000000000000000600082015250565b60006118cb600b83611559565b91506118d682611895565b602082019050919050565b600060208201905081810360008301526118fa816118be565b9050919050565b7f6f766572206d617852656e744475726174696f6e000000000000000000000000600082015250565b6000611937601483611559565b915061194282611901565b602082019050919050565b600060208201905081810360008301526119668161192a565b9050919050565b7f4e487b7100000000000000000000000000000000000000000000000000000000600052601160045260246000fd5b60006119a7826110b0565b91506119b2836110b0565b9250827fffffffffffffffffffffffffffffffffffffffffffffffffffffffffffffffff038211156119e7576119e661196d565b5b828201905092915050565b6000608082019050611a07600083018761171a565b611a14602083018661171a565b611a21604083018561171a565b611a2e60608301846112c5565b95945050505050565b7f4f776e61626c653a206e6577206f776e657220697320746865207a65726f206160008201527f6464726573730000000000000000000000000000000000000000000000000000602082015250565b6000611a93602683611559565b9150611a9e82611a37565b604082019050919050565b60006020820190508181036000830152611ac281611a86565b9050919050565b7f4f776e61626c653a2063616c6c6572206973206e6f7420746865206f776e6572600082015250565b6000611aff602083611559565b9150611b0a82611ac9565b602082019050919050565b60006020820190508181036000830152611b2e81611af2565b905091905056fea26469706673582212206a150c70d016216e914fc796d434ccad2e673f07c40734c79483171b3c1cd38c64736f6c63430008090033a2646970667358221220761eae6f6b608453cf9f84057ba670f3e2a21938a645a723f8b51d94a83feb4a64736f6c63430008090033",
  "linkReferences": {},
  "deployedLinkReferences": {}
}